{
	"Crowdfunding.sol": {
		"Crowdfunding": {
			"abi": [
				{
					"inputs": [],
					"stateMutability": "nonpayable",
					"type": "constructor"
				},
				{
					"inputs": [],
					"name": "MINIMUM_FUND",
					"outputs": [
						{
							"internalType": "uint256",
							"name": "",
							"type": "uint256"
						}
					],
					"stateMutability": "view",
					"type": "function"
				},
				{
					"inputs": [],
					"name": "fund",
					"outputs": [],
					"stateMutability": "payable",
					"type": "function"
				},
				{
					"inputs": [],
					"name": "i_owner",
					"outputs": [
						{
							"internalType": "address",
							"name": "",
							"type": "address"
						}
					],
					"stateMutability": "view",
					"type": "function"
				},
				{
					"inputs": [],
					"name": "withdraw",
					"outputs": [],
					"stateMutability": "nonpayable",
					"type": "function"
				}
			],
			"devdoc": {
				"kind": "dev",
				"methods": {},
				"version": 1
			},
			"evm": {
				"assembly": "    /* \"Crowdfunding.sol\":58:508  contract Crowdfunding {... */\n  mstore(0x40, 0xa0)\n    /* \"Crowdfunding.sol\":184:237  constructor (){... */\n  callvalue\n  dup1\n  iszero\n  tag_1\n  jumpi\n  0x00\n  dup1\n  revert\ntag_1:\n  pop\n    /* \"Crowdfunding.sol\":219:229  msg.sender */\n  caller\n    /* \"Crowdfunding.sol\":209:229  i_owner = msg.sender */\n  0xffffffffffffffffffffffffffffffffffffffff\n  and\n  0x80\n  dup2\n  0xffffffffffffffffffffffffffffffffffffffff\n  and\n  dup2\n  mstore\n  pop\n  pop\n    /* \"Crowdfunding.sol\":58:508  contract Crowdfunding {... */\n  mload(0x80)\n  codecopy(0x00, dataOffset(sub_0), dataSize(sub_0))\n  0x00\n  assignImmutable(\"0xe455bf8ea6e7463a1046a0b52804526e119b4bf5136279614e0b1e8e296a4e2d\")\n  return(0x00, dataSize(sub_0))\nstop\n\nsub_0: assembly {\n        /* \"Crowdfunding.sol\":58:508  contract Crowdfunding {... */\n      mstore(0x40, 0x80)\n      jumpi(tag_1, lt(calldatasize, 0x04))\n      shr(0xe0, calldataload(0x00))\n      dup1\n      0x3ccfd60b\n      eq\n      tag_2\n      jumpi\n      dup1\n      0x5deb0172\n      eq\n      tag_3\n      jumpi\n      dup1\n      0xb60d4288\n      eq\n      tag_4\n      jumpi\n      dup1\n      0xdba6335f\n      eq\n      tag_5\n      jumpi\n    tag_1:\n      0x00\n      dup1\n      revert\n        /* \"Crowdfunding.sol\":402:505  function withdraw() public {... */\n    tag_2:\n      callvalue\n      dup1\n      iszero\n      tag_6\n      jumpi\n      0x00\n      dup1\n      revert\n    tag_6:\n      pop\n      tag_7\n      tag_8\n      jump\t// in\n    tag_7:\n      stop\n        /* \"Crowdfunding.sol\":87:138  uint256 public  constant MINIMUM_FUND = 0.001 ether */\n    tag_3:\n      callvalue\n      dup1\n      iszero\n      tag_9\n      jumpi\n      0x00\n      dup1\n      revert\n    tag_9:\n      pop\n      tag_10\n      tag_11\n      jump\t// in\n    tag_10:\n      mload(0x40)\n      tag_12\n      swap2\n      swap1\n      tag_13\n      jump\t// in\n    tag_12:\n      mload(0x40)\n      dup1\n      swap2\n      sub\n      swap1\n      return\n        /* \"Crowdfunding.sol\":243:396  function fund() public payable {... */\n    tag_4:\n      tag_14\n      tag_15\n      jump\t// in\n    tag_14:\n      stop\n        /* \"Crowdfunding.sol\":145:177  address public immutable i_owner */\n    tag_5:\n      callvalue\n      dup1\n      iszero\n      tag_16\n      jumpi\n      0x00\n      dup1\n      revert\n    tag_16:\n      pop\n      tag_17\n      tag_18\n      jump\t// in\n    tag_17:\n      mload(0x40)\n      tag_19\n      swap2\n      swap1\n      tag_20\n      jump\t// in\n    tag_19:\n      mload(0x40)\n      dup1\n      swap2\n      sub\n      swap1\n      return\n        /* \"Crowdfunding.sol\":402:505  function withdraw() public {... */\n    tag_8:\n        /* \"Crowdfunding.sol\":452:462  msg.sender */\n      caller\n        /* \"Crowdfunding.sol\":443:462  i_owner!=msg.sender */\n      0xffffffffffffffffffffffffffffffffffffffff\n      and\n        /* \"Crowdfunding.sol\":443:450  i_owner */\n      immutable(\"0xe455bf8ea6e7463a1046a0b52804526e119b4bf5136279614e0b1e8e296a4e2d\")\n        /* \"Crowdfunding.sol\":443:462  i_owner!=msg.sender */\n      0xffffffffffffffffffffffffffffffffffffffff\n      and\n      eq\n        /* \"Crowdfunding.sol\":440:498  if(i_owner!=msg.sender){... */\n      tag_22\n      jumpi\n        /* \"Crowdfunding.sol\":478:486  revert() */\n      0x00\n      dup1\n      revert\n        /* \"Crowdfunding.sol\":440:498  if(i_owner!=msg.sender){... */\n    tag_22:\n        /* \"Crowdfunding.sol\":402:505  function withdraw() public {... */\n      jump\t// out\n        /* \"Crowdfunding.sol\":87:138  uint256 public  constant MINIMUM_FUND = 0.001 ether */\n    tag_11:\n        /* \"Crowdfunding.sol\":127:138  0.001 ether */\n      0x038d7ea4c68000\n        /* \"Crowdfunding.sol\":87:138  uint256 public  constant MINIMUM_FUND = 0.001 ether */\n      dup2\n      jump\t// out\n        /* \"Crowdfunding.sol\":243:396  function fund() public payable {... */\n    tag_15:\n        /* \"Crowdfunding.sol\":285:303  uint256 fundAmount */\n      0x00\n        /* \"Crowdfunding.sol\":306:315  msg.value */\n      callvalue\n        /* \"Crowdfunding.sol\":285:315  uint256 fundAmount = msg.value */\n      swap1\n      pop\n        /* \"Crowdfunding.sol\":127:138  0.001 ether */\n      0x038d7ea4c68000\n        /* \"Crowdfunding.sol\":334:344  fundAmount */\n      dup2\n        /* \"Crowdfunding.sol\":334:360  fundAmount >= MINIMUM_FUND */\n      lt\n      iszero\n        /* \"Crowdfunding.sol\":326:384  require(fundAmount >= MINIMUM_FUND, \"No availabel amount\") */\n      tag_24\n      jumpi\n      mload(0x40)\n      0x08c379a000000000000000000000000000000000000000000000000000000000\n      dup2\n      mstore\n      0x04\n      add\n      tag_25\n      swap1\n      tag_26\n      jump\t// in\n    tag_25:\n      mload(0x40)\n      dup1\n      swap2\n      sub\n      swap1\n      revert\n    tag_24:\n        /* \"Crowdfunding.sol\":274:396  {... */\n      pop\n        /* \"Crowdfunding.sol\":243:396  function fund() public payable {... */\n      jump\t// out\n        /* \"Crowdfunding.sol\":145:177  address public immutable i_owner */\n    tag_18:\n      immutable(\"0xe455bf8ea6e7463a1046a0b52804526e119b4bf5136279614e0b1e8e296a4e2d\")\n      dup2\n      jump\t// out\n        /* \"#utility.yul\":7:84   */\n    tag_27:\n        /* \"#utility.yul\":44:51   */\n      0x00\n        /* \"#utility.yul\":73:78   */\n      dup2\n        /* \"#utility.yul\":62:78   */\n      swap1\n      pop\n        /* \"#utility.yul\":7:84   */\n      swap2\n      swap1\n      pop\n      jump\t// out\n        /* \"#utility.yul\":90:208   */\n    tag_28:\n        /* \"#utility.yul\":177:201   */\n      tag_38\n        /* \"#utility.yul\":195:200   */\n      dup2\n        /* \"#utility.yul\":177:201   */\n      tag_27\n      jump\t// in\n    tag_38:\n        /* \"#utility.yul\":172:175   */\n      dup3\n        /* \"#utility.yul\":165:202   */\n      mstore\n        /* \"#utility.yul\":90:208   */\n      pop\n      pop\n      jump\t// out\n        /* \"#utility.yul\":214:436   */\n    tag_13:\n        /* \"#utility.yul\":307:311   */\n      0x00\n        /* \"#utility.yul\":345:347   */\n      0x20\n        /* \"#utility.yul\":334:343   */\n      dup3\n        /* \"#utility.yul\":330:348   */\n      add\n        /* \"#utility.yul\":322:348   */\n      swap1\n      pop\n        /* \"#utility.yul\":358:429   */\n      tag_40\n        /* \"#utility.yul\":426:427   */\n      0x00\n        /* \"#utility.yul\":415:424   */\n      dup4\n        /* \"#utility.yul\":411:428   */\n      add\n        /* \"#utility.yul\":402:408   */\n      dup5\n        /* \"#utility.yul\":358:429   */\n      tag_28\n      jump\t// in\n    tag_40:\n        /* \"#utility.yul\":214:436   */\n      swap3\n      swap2\n      pop\n      pop\n      jump\t// out\n        /* \"#utility.yul\":442:568   */\n    tag_29:\n        /* \"#utility.yul\":479:486   */\n      0x00\n        /* \"#utility.yul\":519:561   */\n      0xffffffffffffffffffffffffffffffffffffffff\n        /* \"#utility.yul\":512:517   */\n      dup3\n        /* \"#utility.yul\":508:562   */\n      and\n        /* \"#utility.yul\":497:562   */\n      swap1\n      pop\n        /* \"#utility.yul\":442:568   */\n      swap2\n      swap1\n      pop\n      jump\t// out\n        /* \"#utility.yul\":574:670   */\n    tag_30:\n        /* \"#utility.yul\":611:618   */\n      0x00\n        /* \"#utility.yul\":640:664   */\n      tag_43\n        /* \"#utility.yul\":658:663   */\n      dup3\n        /* \"#utility.yul\":640:664   */\n      tag_29\n      jump\t// in\n    tag_43:\n        /* \"#utility.yul\":629:664   */\n      swap1\n      pop\n        /* \"#utility.yul\":574:670   */\n      swap2\n      swap1\n      pop\n      jump\t// out\n        /* \"#utility.yul\":676:794   */\n    tag_31:\n        /* \"#utility.yul\":763:787   */\n      tag_45\n        /* \"#utility.yul\":781:786   */\n      dup2\n        /* \"#utility.yul\":763:787   */\n      tag_30\n      jump\t// in\n    tag_45:\n        /* \"#utility.yul\":758:761   */\n      dup3\n        /* \"#utility.yul\":751:788   */\n      mstore\n        /* \"#utility.yul\":676:794   */\n      pop\n      pop\n      jump\t// out\n        /* \"#utility.yul\":800:1022   */\n    tag_20:\n        /* \"#utility.yul\":893:897   */\n      0x00\n        /* \"#utility.yul\":931:933   */\n      0x20\n        /* \"#utility.yul\":920:929   */\n      dup3\n        /* \"#utility.yul\":916:934   */\n      add\n        /* \"#utility.yul\":908:934   */\n      swap1\n      pop\n        /* \"#utility.yul\":944:1015   */\n      tag_47\n        /* \"#utility.yul\":1012:1013   */\n      0x00\n        /* \"#utility.yul\":1001:1010   */\n      dup4\n        /* \"#utility.yul\":997:1014   */\n      add\n        /* \"#utility.yul\":988:994   */\n      dup5\n        /* \"#utility.yul\":944:1015   */\n      tag_31\n      jump\t// in\n    tag_47:\n        /* \"#utility.yul\":800:1022   */\n      swap3\n      swap2\n      pop\n      pop\n      jump\t// out\n        /* \"#utility.yul\":1028:1197   */\n    tag_32:\n        /* \"#utility.yul\":1112:1123   */\n      0x00\n        /* \"#utility.yul\":1146:1152   */\n      dup3\n        /* \"#utility.yul\":1141:1144   */\n      dup3\n        /* \"#utility.yul\":1134:1153   */\n      mstore\n        /* \"#utility.yul\":1186:1190   */\n      0x20\n        /* \"#utility.yul\":1181:1184   */\n      dup3\n        /* \"#utility.yul\":1177:1191   */\n      add\n        /* \"#utility.yul\":1162:1191   */\n      swap1\n      pop\n        /* \"#utility.yul\":1028:1197   */\n      swap3\n      swap2\n      pop\n      pop\n      jump\t// out\n        /* \"#utility.yul\":1203:1372   */\n    tag_33:\n        /* \"#utility.yul\":1343:1364   */\n      0x4e6f20617661696c6162656c20616d6f756e7400000000000000000000000000\n        /* \"#utility.yul\":1339:1340   */\n      0x00\n        /* \"#utility.yul\":1331:1337   */\n      dup3\n        /* \"#utility.yul\":1327:1341   */\n      add\n        /* \"#utility.yul\":1320:1365   */\n      mstore\n        /* \"#utility.yul\":1203:1372   */\n      pop\n      jump\t// out\n        /* \"#utility.yul\":1378:1744   */\n    tag_34:\n        /* \"#utility.yul\":1520:1523   */\n      0x00\n        /* \"#utility.yul\":1541:1608   */\n      tag_51\n        /* \"#utility.yul\":1605:1607   */\n      0x13\n        /* \"#utility.yul\":1600:1603   */\n      dup4\n        /* \"#utility.yul\":1541:1608   */\n      tag_32\n      jump\t// in\n    tag_51:\n        /* \"#utility.yul\":1534:1608   */\n      swap2\n      pop\n        /* \"#utility.yul\":1617:1710   */\n      tag_52\n        /* \"#utility.yul\":1706:1709   */\n      dup3\n        /* \"#utility.yul\":1617:1710   */\n      tag_33\n      jump\t// in\n    tag_52:\n        /* \"#utility.yul\":1735:1737   */\n      0x20\n        /* \"#utility.yul\":1730:1733   */\n      dup3\n        /* \"#utility.yul\":1726:1738   */\n      add\n        /* \"#utility.yul\":1719:1738   */\n      swap1\n      pop\n        /* \"#utility.yul\":1378:1744   */\n      swap2\n      swap1\n      pop\n      jump\t// out\n        /* \"#utility.yul\":1750:2169   */\n    tag_26:\n        /* \"#utility.yul\":1916:1920   */\n      0x00\n        /* \"#utility.yul\":1954:1956   */\n      0x20\n        /* \"#utility.yul\":1943:1952   */\n      dup3\n        /* \"#utility.yul\":1939:1957   */\n      add\n        /* \"#utility.yul\":1931:1957   */\n      swap1\n      pop\n        /* \"#utility.yul\":2003:2012   */\n      dup2\n        /* \"#utility.yul\":1997:2001   */\n      dup2\n        /* \"#utility.yul\":1993:2013   */\n      sub\n        /* \"#utility.yul\":1989:1990   */\n      0x00\n        /* \"#utility.yul\":1978:1987   */\n      dup4\n        /* \"#utility.yul\":1974:1991   */\n      add\n        /* \"#utility.yul\":1967:2014   */\n      mstore\n        /* \"#utility.yul\":2031:2162   */\n      tag_54\n        /* \"#utility.yul\":2157:2161   */\n      dup2\n        /* \"#utility.yul\":2031:2162   */\n      tag_34\n      jump\t// in\n    tag_54:\n        /* \"#utility.yul\":2023:2162   */\n      swap1\n      pop\n        /* \"#utility.yul\":1750:2169   */\n      swap2\n      swap1\n      pop\n      jump\t// out\n\n    auxdata: 0xa2646970667358221220ed9877b6fba5d1bbf0774f94d4cd79867579df11cbc1632797504b4d5b37964264736f6c634300081a0033\n}\n",
				"bytecode": {
					"linkReferences": {},
					"object": "60a0604052348015600e575f80fd5b503373ffffffffffffffffffffffffffffffffffffffff1660808173ffffffffffffffffffffffffffffffffffffffff16815250506080516102c66100615f395f818160cf015261016d01526102c65ff3fe60806040526004361061003e575f3560e01c80633ccfd60b146100425780635deb017214610058578063b60d428814610082578063dba6335f1461008c575b5f80fd5b34801561004d575f80fd5b506100566100b6565b005b348015610063575f80fd5b5061006c61010f565b60405161007991906101a7565b60405180910390f35b61008a61011a565b005b348015610097575f80fd5b506100a061016b565b6040516100ad91906101ff565b60405180910390f35b3373ffffffffffffffffffffffffffffffffffffffff167f000000000000000000000000000000000000000000000000000000000000000073ffffffffffffffffffffffffffffffffffffffff161461010d575f80fd5b565b66038d7ea4c6800081565b5f34905066038d7ea4c68000811015610168576040517f08c379a000000000000000000000000000000000000000000000000000000000815260040161015f90610272565b60405180910390fd5b50565b7f000000000000000000000000000000000000000000000000000000000000000081565b5f819050919050565b6101a18161018f565b82525050565b5f6020820190506101ba5f830184610198565b92915050565b5f73ffffffffffffffffffffffffffffffffffffffff82169050919050565b5f6101e9826101c0565b9050919050565b6101f9816101df565b82525050565b5f6020820190506102125f8301846101f0565b92915050565b5f82825260208201905092915050565b7f4e6f20617661696c6162656c20616d6f756e74000000000000000000000000005f82015250565b5f61025c601383610218565b915061026782610228565b602082019050919050565b5f6020820190508181035f83015261028981610250565b905091905056fea2646970667358221220ed9877b6fba5d1bbf0774f94d4cd79867579df11cbc1632797504b4d5b37964264736f6c634300081a0033",
					"opcodes": "PUSH1 0xA0 PUSH1 0x40 MSTORE CALLVALUE DUP1 ISZERO PUSH1 0xE JUMPI PUSH0 DUP1 REVERT JUMPDEST POP CALLER PUSH20 0xFFFFFFFFFFFFFFFFFFFFFFFFFFFFFFFFFFFFFFFF AND PUSH1 0x80 DUP2 PUSH20 0xFFFFFFFFFFFFFFFFFFFFFFFFFFFFFFFFFFFFFFFF AND DUP2 MSTORE POP POP PUSH1 0x80 MLOAD PUSH2 0x2C6 PUSH2 0x61 PUSH0 CODECOPY PUSH0 DUP2 DUP2 PUSH1 0xCF ADD MSTORE PUSH2 0x16D ADD MSTORE PUSH2 0x2C6 PUSH0 RETURN INVALID PUSH1 0x80 PUSH1 0x40 MSTORE PUSH1 0x4 CALLDATASIZE LT PUSH2 0x3E JUMPI PUSH0 CALLDATALOAD PUSH1 0xE0 SHR DUP1 PUSH4 0x3CCFD60B EQ PUSH2 0x42 JUMPI DUP1 PUSH4 0x5DEB0172 EQ PUSH2 0x58 JUMPI DUP1 PUSH4 0xB60D4288 EQ PUSH2 0x82 JUMPI DUP1 PUSH4 0xDBA6335F EQ PUSH2 0x8C JUMPI JUMPDEST PUSH0 DUP1 REVERT JUMPDEST CALLVALUE DUP1 ISZERO PUSH2 0x4D JUMPI PUSH0 DUP1 REVERT JUMPDEST POP PUSH2 0x56 PUSH2 0xB6 JUMP JUMPDEST STOP JUMPDEST CALLVALUE DUP1 ISZERO PUSH2 0x63 JUMPI PUSH0 DUP1 REVERT JUMPDEST POP PUSH2 0x6C PUSH2 0x10F JUMP JUMPDEST PUSH1 0x40 MLOAD PUSH2 0x79 SWAP2 SWAP1 PUSH2 0x1A7 JUMP JUMPDEST PUSH1 0x40 MLOAD DUP1 SWAP2 SUB SWAP1 RETURN JUMPDEST PUSH2 0x8A PUSH2 0x11A JUMP JUMPDEST STOP JUMPDEST CALLVALUE DUP1 ISZERO PUSH2 0x97 JUMPI PUSH0 DUP1 REVERT JUMPDEST POP PUSH2 0xA0 PUSH2 0x16B JUMP JUMPDEST PUSH1 0x40 MLOAD PUSH2 0xAD SWAP2 SWAP1 PUSH2 0x1FF JUMP JUMPDEST PUSH1 0x40 MLOAD DUP1 SWAP2 SUB SWAP1 RETURN JUMPDEST CALLER PUSH20 0xFFFFFFFFFFFFFFFFFFFFFFFFFFFFFFFFFFFFFFFF AND PUSH32 0x0 PUSH20 0xFFFFFFFFFFFFFFFFFFFFFFFFFFFFFFFFFFFFFFFF AND EQ PUSH2 0x10D JUMPI PUSH0 DUP1 REVERT JUMPDEST JUMP JUMPDEST PUSH7 0x38D7EA4C68000 DUP2 JUMP JUMPDEST PUSH0 CALLVALUE SWAP1 POP PUSH7 0x38D7EA4C68000 DUP2 LT ISZERO PUSH2 0x168 JUMPI PUSH1 0x40 MLOAD PUSH32 0x8C379A000000000000000000000000000000000000000000000000000000000 DUP2 MSTORE PUSH1 0x4 ADD PUSH2 0x15F SWAP1 PUSH2 0x272 JUMP JUMPDEST PUSH1 0x40 MLOAD DUP1 SWAP2 SUB SWAP1 REVERT JUMPDEST POP JUMP JUMPDEST PUSH32 0x0 DUP2 JUMP JUMPDEST PUSH0 DUP2 SWAP1 POP SWAP2 SWAP1 POP JUMP JUMPDEST PUSH2 0x1A1 DUP2 PUSH2 0x18F JUMP JUMPDEST DUP3 MSTORE POP POP JUMP JUMPDEST PUSH0 PUSH1 0x20 DUP3 ADD SWAP1 POP PUSH2 0x1BA PUSH0 DUP4 ADD DUP5 PUSH2 0x198 JUMP JUMPDEST SWAP3 SWAP2 POP POP JUMP JUMPDEST PUSH0 PUSH20 0xFFFFFFFFFFFFFFFFFFFFFFFFFFFFFFFFFFFFFFFF DUP3 AND SWAP1 POP SWAP2 SWAP1 POP JUMP JUMPDEST PUSH0 PUSH2 0x1E9 DUP3 PUSH2 0x1C0 JUMP JUMPDEST SWAP1 POP SWAP2 SWAP1 POP JUMP JUMPDEST PUSH2 0x1F9 DUP2 PUSH2 0x1DF JUMP JUMPDEST DUP3 MSTORE POP POP JUMP JUMPDEST PUSH0 PUSH1 0x20 DUP3 ADD SWAP1 POP PUSH2 0x212 PUSH0 DUP4 ADD DUP5 PUSH2 0x1F0 JUMP JUMPDEST SWAP3 SWAP2 POP POP JUMP JUMPDEST PUSH0 DUP3 DUP3 MSTORE PUSH1 0x20 DUP3 ADD SWAP1 POP SWAP3 SWAP2 POP POP JUMP JUMPDEST PUSH32 0x4E6F20617661696C6162656C20616D6F756E7400000000000000000000000000 PUSH0 DUP3 ADD MSTORE POP JUMP JUMPDEST PUSH0 PUSH2 0x25C PUSH1 0x13 DUP4 PUSH2 0x218 JUMP JUMPDEST SWAP2 POP PUSH2 0x267 DUP3 PUSH2 0x228 JUMP JUMPDEST PUSH1 0x20 DUP3 ADD SWAP1 POP SWAP2 SWAP1 POP JUMP JUMPDEST PUSH0 PUSH1 0x20 DUP3 ADD SWAP1 POP DUP2 DUP2 SUB PUSH0 DUP4 ADD MSTORE PUSH2 0x289 DUP2 PUSH2 0x250 JUMP JUMPDEST SWAP1 POP SWAP2 SWAP1 POP JUMP INVALID LOG2 PUSH5 0x6970667358 0x22 SLT KECCAK256 0xED SWAP9 PUSH24 0xB6FBA5D1BBF0774F94D4CD79867579DF11CBC1632797504B 0x4D JUMPDEST CALLDATACOPY SWAP7 TIMESTAMP PUSH5 0x736F6C6343 STOP ADDMOD BYTE STOP CALLER "
				},
				"gasEstimates": {
					"creation": {
						"codeDepositCost": "142000",
						"executionCost": "infinite",
						"totalCost": "infinite"
					},
					"external": {
						"MINIMUM_FUND()": "325",
						"fund()": "460",
						"i_owner()": "infinite",
						"withdraw()": "infinite"
					}
				},
				"methodIdentifiers": {
					"MINIMUM_FUND()": "5deb0172",
					"fund()": "b60d4288",
					"i_owner()": "dba6335f",
					"withdraw()": "3ccfd60b"
				}
			},
			"storageLayout": {
				"storage": [],
				"types": null
			},
			"userdoc": {
				"kind": "user",
				"methods": {},
				"version": 1
			}
		}
	}
}