{
	"Crowdfunding.sol": {
		"Crowdfunding": {
			"abi": [
				{
					"inputs": [],
					"name": "fund",
					"outputs": [],
					"stateMutability": "payable",
					"type": "function"
				},
				{
					"inputs": [],
					"name": "withdraw",
					"outputs": [],
					"stateMutability": "nonpayable",
					"type": "function"
				}
			],
			"devdoc": {
				"kind": "dev",
				"methods": {},
				"version": 1
			},
			"evm": {
				"assembly": "    /* \"Crowdfunding.sol\":58:344  contract Crowdfunding {... */\n  mstore(0x40, 0x80)\n  callvalue\n  dup1\n  iszero\n  tag_1\n  jumpi\n  0x00\n  dup1\n  revert\ntag_1:\n  pop\n  dataSize(sub_0)\n  dup1\n  dataOffset(sub_0)\n  0x00\n  codecopy\n  0x00\n  return\nstop\n\nsub_0: assembly {\n        /* \"Crowdfunding.sol\":58:344  contract Crowdfunding {... */\n      mstore(0x40, 0x80)\n      jumpi(tag_1, lt(calldatasize, 0x04))\n      shr(0xe0, calldataload(0x00))\n      dup1\n      0x3ccfd60b\n      eq\n      tag_2\n      jumpi\n      dup1\n      0xb60d4288\n      eq\n      tag_3\n      jumpi\n    tag_1:\n      0x00\n      dup1\n      revert\n        /* \"Crowdfunding.sol\":296:341  function withdraw() public {... */\n    tag_2:\n      callvalue\n      dup1\n      iszero\n      tag_4\n      jumpi\n      0x00\n      dup1\n      revert\n    tag_4:\n      pop\n      tag_5\n      tag_6\n      jump\t// in\n    tag_5:\n      stop\n        /* \"Crowdfunding.sol\":137:290  function fund() public payable {... */\n    tag_3:\n      tag_7\n      tag_8\n      jump\t// in\n    tag_7:\n      stop\n        /* \"Crowdfunding.sol\":296:341  function withdraw() public {... */\n    tag_6:\n      jump\t// out\n        /* \"Crowdfunding.sol\":137:290  function fund() public payable {... */\n    tag_8:\n        /* \"Crowdfunding.sol\":179:197  uint256 fundAmount */\n      0x00\n        /* \"Crowdfunding.sol\":200:209  msg.value */\n      callvalue\n        /* \"Crowdfunding.sol\":179:209  uint256 fundAmount = msg.value */\n      swap1\n      pop\n        /* \"Crowdfunding.sol\":119:130  0.001 ether */\n      0x038d7ea4c68000\n        /* \"Crowdfunding.sol\":228:238  fundAmount */\n      dup2\n        /* \"Crowdfunding.sol\":228:254  fundAmount >= MINIMUM_FUND */\n      lt\n      iszero\n        /* \"Crowdfunding.sol\":220:278  require(fundAmount >= MINIMUM_FUND, \"No availabel amount\") */\n      tag_11\n      jumpi\n      mload(0x40)\n      0x08c379a000000000000000000000000000000000000000000000000000000000\n      dup2\n      mstore\n      0x04\n      add\n      tag_12\n      swap1\n      tag_13\n      jump\t// in\n    tag_12:\n      mload(0x40)\n      dup1\n      swap2\n      sub\n      swap1\n      revert\n    tag_11:\n        /* \"Crowdfunding.sol\":168:290  {... */\n      pop\n        /* \"Crowdfunding.sol\":137:290  function fund() public payable {... */\n      jump\t// out\n        /* \"#utility.yul\":7:176   */\n    tag_14:\n        /* \"#utility.yul\":91:102   */\n      0x00\n        /* \"#utility.yul\":125:131   */\n      dup3\n        /* \"#utility.yul\":120:123   */\n      dup3\n        /* \"#utility.yul\":113:132   */\n      mstore\n        /* \"#utility.yul\":165:169   */\n      0x20\n        /* \"#utility.yul\":160:163   */\n      dup3\n        /* \"#utility.yul\":156:170   */\n      add\n        /* \"#utility.yul\":141:170   */\n      swap1\n      pop\n        /* \"#utility.yul\":7:176   */\n      swap3\n      swap2\n      pop\n      pop\n      jump\t// out\n        /* \"#utility.yul\":182:351   */\n    tag_15:\n        /* \"#utility.yul\":322:343   */\n      0x4e6f20617661696c6162656c20616d6f756e7400000000000000000000000000\n        /* \"#utility.yul\":318:319   */\n      0x00\n        /* \"#utility.yul\":310:316   */\n      dup3\n        /* \"#utility.yul\":306:320   */\n      add\n        /* \"#utility.yul\":299:344   */\n      mstore\n        /* \"#utility.yul\":182:351   */\n      pop\n      jump\t// out\n        /* \"#utility.yul\":357:723   */\n    tag_16:\n        /* \"#utility.yul\":499:502   */\n      0x00\n        /* \"#utility.yul\":520:587   */\n      tag_21\n        /* \"#utility.yul\":584:586   */\n      0x13\n        /* \"#utility.yul\":579:582   */\n      dup4\n        /* \"#utility.yul\":520:587   */\n      tag_14\n      jump\t// in\n    tag_21:\n        /* \"#utility.yul\":513:587   */\n      swap2\n      pop\n        /* \"#utility.yul\":596:689   */\n      tag_22\n        /* \"#utility.yul\":685:688   */\n      dup3\n        /* \"#utility.yul\":596:689   */\n      tag_15\n      jump\t// in\n    tag_22:\n        /* \"#utility.yul\":714:716   */\n      0x20\n        /* \"#utility.yul\":709:712   */\n      dup3\n        /* \"#utility.yul\":705:717   */\n      add\n        /* \"#utility.yul\":698:717   */\n      swap1\n      pop\n        /* \"#utility.yul\":357:723   */\n      swap2\n      swap1\n      pop\n      jump\t// out\n        /* \"#utility.yul\":729:1148   */\n    tag_13:\n        /* \"#utility.yul\":895:899   */\n      0x00\n        /* \"#utility.yul\":933:935   */\n      0x20\n        /* \"#utility.yul\":922:931   */\n      dup3\n        /* \"#utility.yul\":918:936   */\n      add\n        /* \"#utility.yul\":910:936   */\n      swap1\n      pop\n        /* \"#utility.yul\":982:991   */\n      dup2\n        /* \"#utility.yul\":976:980   */\n      dup2\n        /* \"#utility.yul\":972:992   */\n      sub\n        /* \"#utility.yul\":968:969   */\n      0x00\n        /* \"#utility.yul\":957:966   */\n      dup4\n        /* \"#utility.yul\":953:970   */\n      add\n        /* \"#utility.yul\":946:993   */\n      mstore\n        /* \"#utility.yul\":1010:1141   */\n      tag_24\n        /* \"#utility.yul\":1136:1140   */\n      dup2\n        /* \"#utility.yul\":1010:1141   */\n      tag_16\n      jump\t// in\n    tag_24:\n        /* \"#utility.yul\":1002:1141   */\n      swap1\n      pop\n        /* \"#utility.yul\":729:1148   */\n      swap2\n      swap1\n      pop\n      jump\t// out\n\n    auxdata: 0xa2646970667358221220cba0d81017e7f6c5bab8922a7ae7c39f543c1233338ccc9550403d80229d014f64736f6c634300081a0033\n}\n",
				"bytecode": {
					"linkReferences": {},
					"object": "6080604052348015600e575f80fd5b5061014d8061001c5f395ff3fe608060405260043610610028575f3560e01c80633ccfd60b1461002c578063b60d428814610042575b5f80fd5b348015610037575f80fd5b5061004061004c565b005b61004a61004e565b005b565b5f34905066038d7ea4c6800081101561009c576040517f08c379a0000000000000000000000000000000000000000000000000000000008152600401610093906100f9565b60405180910390fd5b50565b5f82825260208201905092915050565b7f4e6f20617661696c6162656c20616d6f756e74000000000000000000000000005f82015250565b5f6100e360138361009f565b91506100ee826100af565b602082019050919050565b5f6020820190508181035f830152610110816100d7565b905091905056fea2646970667358221220cba0d81017e7f6c5bab8922a7ae7c39f543c1233338ccc9550403d80229d014f64736f6c634300081a0033",
					"opcodes": "PUSH1 0x80 PUSH1 0x40 MSTORE CALLVALUE DUP1 ISZERO PUSH1 0xE JUMPI PUSH0 DUP1 REVERT JUMPDEST POP PUSH2 0x14D DUP1 PUSH2 0x1C PUSH0 CODECOPY PUSH0 RETURN INVALID PUSH1 0x80 PUSH1 0x40 MSTORE PUSH1 0x4 CALLDATASIZE LT PUSH2 0x28 JUMPI PUSH0 CALLDATALOAD PUSH1 0xE0 SHR DUP1 PUSH4 0x3CCFD60B EQ PUSH2 0x2C JUMPI DUP1 PUSH4 0xB60D4288 EQ PUSH2 0x42 JUMPI JUMPDEST PUSH0 DUP1 REVERT JUMPDEST CALLVALUE DUP1 ISZERO PUSH2 0x37 JUMPI PUSH0 DUP1 REVERT JUMPDEST POP PUSH2 0x40 PUSH2 0x4C JUMP JUMPDEST STOP JUMPDEST PUSH2 0x4A PUSH2 0x4E JUMP JUMPDEST STOP JUMPDEST JUMP JUMPDEST PUSH0 CALLVALUE SWAP1 POP PUSH7 0x38D7EA4C68000 DUP2 LT ISZERO PUSH2 0x9C JUMPI PUSH1 0x40 MLOAD PUSH32 0x8C379A000000000000000000000000000000000000000000000000000000000 DUP2 MSTORE PUSH1 0x4 ADD PUSH2 0x93 SWAP1 PUSH2 0xF9 JUMP JUMPDEST PUSH1 0x40 MLOAD DUP1 SWAP2 SUB SWAP1 REVERT JUMPDEST POP JUMP JUMPDEST PUSH0 DUP3 DUP3 MSTORE PUSH1 0x20 DUP3 ADD SWAP1 POP SWAP3 SWAP2 POP POP JUMP JUMPDEST PUSH32 0x4E6F20617661696C6162656C20616D6F756E7400000000000000000000000000 PUSH0 DUP3 ADD MSTORE POP JUMP JUMPDEST PUSH0 PUSH2 0xE3 PUSH1 0x13 DUP4 PUSH2 0x9F JUMP JUMPDEST SWAP2 POP PUSH2 0xEE DUP3 PUSH2 0xAF JUMP JUMPDEST PUSH1 0x20 DUP3 ADD SWAP1 POP SWAP2 SWAP1 POP JUMP JUMPDEST PUSH0 PUSH1 0x20 DUP3 ADD SWAP1 POP DUP2 DUP2 SUB PUSH0 DUP4 ADD MSTORE PUSH2 0x110 DUP2 PUSH2 0xD7 JUMP JUMPDEST SWAP1 POP SWAP2 SWAP1 POP JUMP INVALID LOG2 PUSH5 0x6970667358 0x22 SLT KECCAK256 0xCB LOG0 0xD8 LT OR 0xE7 0xF6 0xC5 0xBA 0xB8 SWAP3 0x2A PUSH27 0xE7C39F543C1233338CCC9550403D80229D014F64736F6C63430008 BYTE STOP CALLER "
				},
				"gasEstimates": {
					"creation": {
						"codeDepositCost": "66600",
						"executionCost": "115",
						"totalCost": "66715"
					},
					"external": {
						"fund()": "438",
						"withdraw()": "121"
					}
				},
				"methodIdentifiers": {
					"fund()": "b60d4288",
					"withdraw()": "3ccfd60b"
				}
			},
			"storageLayout": {
				"storage": [],
				"types": null
			},
			"userdoc": {
				"kind": "user",
				"methods": {},
				"version": 1
			}
		}
	}
}